:100000000C9462000C945C010C9483010C948A00A3
:100010000C948A000C948A000C948A000C948A0038
:100020000C948A000C948A000C948A000C948A0028
:100030000C948A000C948A000C948A000C948A0018
:100040000C94AA010C948A000C9422040C9454047D
:100050000C948A000C948A000C948A000C948A00F8
:100060000C948A000C948A00000000080002010031
:100070000003040700000000000000000102040863
:100080001020408001020408102001020408102002
:10009000040404040404040402020202020203032E
:1000A00003030303000000002300260029000000D2
:1000B0000000250028002B0000000000240027007D
:1000C0002A00840411241FBECFEFD8E0DEBFCDBFCD
:1000D00011E0A0E0B1E0E8E1FCE002C005900D9283
:1000E000A832B107D9F721E0A8E2B1E001C01D9222
:1000F000AA3DB207E1F710E0C4ECD0E004C02297BB
:10010000FE010E940606C23CD107C9F70E94D30532
:100110000C940A060C9400008091300190913101FA
:10012000019690933101809330018091320190913A
:100130003301019690933301809332010E94F401C0
:10014000AB01BC01409328015093290160932A011F
:1001500070932B012AE030E08DE391E00E94C50509
:1001600064E071E08DE391E00E94050582E00E9469
:10017000B4024AE050E0BC018DE391E00E94BD056D
:1001800064E071E08DE391E00E9405056091320129
:10019000709133014AE050E08DE391E00E94BD058B
:1001A00064E071E08DE391E00E9405054091280133
:1001B0005091290160912A0170912B0180912C01AD
:1001C00090912D01A0912E01B0912F01481B590B48
:1001D0006A0B7B0B2AE030E08DE391E00E94C505BD
:1001E00064E071E08DE391E00E94050560913001CB
:1001F000709131014AE050E08DE391E00E94BD052D
:1002000064E071E08DE391E00E9412058091280185
:1002100090912901A0912A01B0912B0180932C018A
:1002200090932D01A0932E01B0932F018091320164
:10023000909133018131974224F010923301109252
:1002400032011092310110923001089526E040E011
:1002500052EC61E070E08DE391E00E94C00341E068
:1002600050E06CE870E080E00E943C0162E082E0D7
:100270000C947B02089508958230E8F4E82FF0E0B2
:10028000EE0FFF1FE050FF4F71836083813041F01C
:10029000809169008C7F842B80936900E89A08958F
:1002A00080916900440F551F440F551F837F842B95
:1002B00080936900E99A08951F920F920FB60F92EA
:1002C00011242F933F934F935F936F937F938F935B
:1002D0009F93AF93BF93EF93FF93E0910001F09151
:1002E00001010995FF91EF91BF91AF919F918F917E
:1002F0007F916F915F914F913F912F910F900FBE22
:100300000F901F9018951F920F920FB60F92112405
:100310002F933F934F935F936F937F938F939F930D
:10032000AF93BF93EF93FF93E0910201F09103012C
:100330000995FF91EF91BF91AF919F918F917F911F
:100340006F915F914F913F912F910F900FBE0F9042
:100350001F9018951F920F920FB60F9211242F9392
:100360003F938F939F93AF93BF938091350190916B
:100370003601A0913701B09138013091340123E06A
:10038000230F2D3720F40196A11DB11D05C026E8CD
:10039000230F0296A11DB11D2093340180933501D6
:1003A00090933601A0933701B093380180913901C1
:1003B00090913A01A0913B01B0913C010196A11DA1
:1003C000B11D8093390190933A01A0933B01B09302
:1003D0003C01BF91AF919F918F913F912F910F90D1
:1003E0000FBE0F901F9018953FB7F8948091390178
:1003F00090913A01A0913B01B0913C0126B5A89B98
:1004000005C02F3F19F00196A11DB11D3FBF662702
:10041000782F892F9A2F620F711D811D911D42E047
:10042000660F771F881F991F4A95D1F70895789412
:1004300084B5826084BD84B5816084BD85B58260E9
:1004400085BD85B5816085BDEEE6F0E08081816087
:100450008083E1E8F0E01082808182608083808187
:1004600081608083E0E8F0E0808181608083E1EB5F
:10047000F0E0808184608083E0EBF0E08081816047
:100480008083EAE7F0E080818460808380818260FD
:1004900080838081816080838081806880831092E6
:1004A000C1000895833081F028F4813099F08230C2
:1004B000A1F008958730A9F08830B9F08430D1F4E4
:1004C000809180008F7D03C0809180008F77809322
:1004D0008000089584B58F7702C084B58F7D84BD78
:1004E00008958091B0008F7703C08091B0008F7D18
:1004F0008093B0000895CF93DF9390E0FC01E4581F
:10050000FF4F2491FC01E057FF4F8491882349F16C
:1005100090E0880F991FFC01E854FF4FA591B4911A
:1005200082559F4FFC01C591D4919FB7611108C0BE
:10053000F8948C91209582238C93888182230AC021
:10054000623051F4F8948C91322F309583238C9340
:100550008881822B888304C0F8948C91822B8C93A1
:100560009FBFDF91CF910895CF93DF93282F30E085
:10057000F901E859FF4F8491F901E458FF4FD491F4
:10058000F901E057FF4FC491CC2391F081110E94F3
:100590005202EC2FF0E0EE0FFF1FEC55FF4FA5913C
:1005A000B4912C912D2381E090E021F480E002C0F1
:1005B00080E090E0DF91CF910895FC01818D228D44
:1005C00090E0805C9F4F821B91098F73992708955B
:1005D000FC01918D828D981731F0828DE80FF11D0D
:1005E000858D90E008958FEF9FEF0895FC01918D28
:1005F000828D981761F0828DDF01A80FB11D5D9685
:100600008C91928D9F5F9F73928F90E008958FEFF2
:100610009FEF08958AE794E0892B49F080E090E00D
:10062000892B29F00E947A0481110C94000008950E
:10063000FC01848DDF01A80FB11DA35ABF4F2C917F
:10064000848D90E001968F739927848FA689B7894E
:100650002C93A089B1898C9180648C93938D848D27
:10066000981306C00288F389E02D80818F7D8083F6
:100670000895CF93DF93EC01888D8823C9F0EA8930
:10068000FB89808185FD05C0A889B9898C9186FD8B
:100690000FC00FB607FCF5CF808185FFF2CFA88988
:1006A000B9898C9185FFEDCFCE010E941803E7CF69
:1006B000DF91CF910895CF92DF92FF920F931F9316
:1006C000CF93DF931F92CDB7DEB76C0181E0D601E7
:1006D00058968C9358975B969C915B975C968C91FF
:1006E0005C97981307C05096ED91FC9151978081CB
:1006F00085FD2EC0F601038D10E00F5F1F4F0F73B5
:100700001127F02EF601848DF81211C00FB607FCE8
:10071000F9CFD6015096ED91FC915197808185FFDC
:10072000F1CFC60169830E9418036981EBCF838DE5
:10073000E80FF11DE35AFF4F6083D6015B960C93DF
:100740005B975296ED91FC915397808180620CC02B
:10075000D6015696ED91FC91579760835096ED9196
:10076000FC91519780818064808381E090E00F90BC
:10077000DF91CF911F910F91FF90DF90CF9008955F
:10078000BF92CF92DF92EF92FF92CF93DF93EC0173
:100790006A017B01B22EE889F98982E080834115E4
:1007A00081EE580761057105A1F060E079E08DE305
:1007B00090E0A70196010E94E2052150310941090C
:1007C00051095695479537952795211580E13807AA
:1007D00098F0E889F989108260E874E88EE190E089
:1007E000A70196010E94E2052150310941095109F2
:1007F0005695479537952795EC85FD853083EE8591
:10080000FF852083188EEC89FD89B082EA89FB89F7
:10081000808180618083EA89FB8980818860808310
:10082000EA89FB89808180688083EA89FB898081ED
:100830008F7D8083DF91CF91FF90EF90DF90CF90FD
:10084000BF9008951F920F920FB60F9211242F930D
:100850008F939F93EF93FF93E0914D01F0914E01A1
:100860008081E0915301F091540182FD12C090818A
:10087000809156018F5F8F7320915701821751F03D
:10088000E0915601F0E0E35CFE4F958F80935601B6
:1008900001C08081FF91EF919F918F912F910F90D7
:1008A0000FBE0F901F9018951F920F920FB60F92C8
:1008B00011242F933F934F935F936F937F938F9365
:1008C0009F93AF93BF93EF93FF938DE391E00E94CB
:1008D0001803FF91EF91BF91AF919F918F917F91FD
:1008E0006F915F914F913F912F910F900FBE0F909D
:1008F0001F9018958DE391E00E94DD0221E0892B85
:1009000009F420E0822F08951092400110923F01D7
:1009100088EE93E0A0E0B0E0809341019093420123
:10092000A0934301B09344018AE091E090933E018B
:1009300080933D0185EC90E090934A0180934901BA
:1009400084EC90E090934C0180934B0180EC90E01C
:1009500090934E0180934D0181EC90E09093500173
:1009600080934F0182EC90E090935201809351016B
:1009700086EC90E0909354018093530110925601BD
:100980001092570110925801109259010895CF9278
:10099000DF92EF92FF920F931F93CF93DF937C012F
:1009A0006A01EB0100E010E00C151D0571F0699182
:1009B000D701ED91FC910190F081E02DC7010995DF
:1009C000892B19F00F5F1F4FEFCFC801DF91CF9137
:1009D0001F910F91FF90EF90DF90CF9008956115D8
:1009E000710581F0DB010D900020E9F7AD01415068
:1009F0005109461B570BDC01ED91FC910280F381FC
:100A0000E02D099480E090E008950C94EF04DC015F
:100A1000ED91FC910190F081E02D099466E171E087
:100A20000C94EF040F931F93CF93DF93EC010E947C
:100A3000EF048C01CE010E940E05800F911FDF9103
:100A4000CF911F910F9108958F929F92AF92BF9275
:100A5000DF92EF92FF920F931F93CF93DF93CDB767
:100A6000DEB7A1970FB6F894DEBF0FBECDBF7C01F5
:100A7000F42FD52ECB0119A2223008F42AE08E01E2
:100A80000F5D1F4F822E912CA12CB12C6F2F7D2D2D
:100A9000A50194010E94E205F22FD32ECA01015054
:100AA00011096A3014F4E0E301C0E7E3E60FD8016E
:100AB000EC93232B242B252B49F7B801C7010E9467
:100AC000EF04A1960FB6F894DEBF0FBECDBFDF9145
:100AD000CF911F910F91FF90EF90DF90BF90AF905B
:100AE0009F908F900895CF92DF92EF92FF920F9395
:100AF0001F93CF93DF93EC016A017B012115310530
:100B000079F4E881F9810190F081E02D642FDF9183
:100B1000CF911F910F91FF90EF90DF90CF900994AC
:100B20002A303105E9F477FF1AC06DE20E9407050B
:100B30008C0144275527BA014C195D096E097F09BC
:100B40002AE0CE010E942405800F911FDF91CF91F2
:100B50001F910F91FF90EF90DF90CF9008952AE0C2
:100B6000B701A601CE01DF91CF911F910F91FF90A8
:100B7000EF90DF90CF900C9424059A01AB0166278B
:100B800057FD6095762F0C9473052115310541F4BE
:100B9000DC01ED91FC910190F081E02D642F09942E
:100BA0000C94240508950E9417020E94D2050E9409
:100BB0002601CAE0D3E00E943A012097E1F30E94A7
:100BC0000A03F9CFA1E21A2EAA1BBB1BFD010DC01F
:100BD000AA1FBB1FEE1FFF1FA217B307E407F507ED
:100BE00020F0A21BB30BE40BF50B661F771F881FC9
:100BF000991F1A9469F760957095809590959B015F
:100C0000AC01BD01CF010895EE0FFF1F0590F491D7
:080C1000E02D0994F894FFCFD8
:100C18003B013B013B00000000005B03C704DD0211
:100C2800F602E80239030D0A006E616E00696E660D
:080C3800006F7666002E00003B
:00000001FF
